{
  "_format": "hh-sol-artifact-1",
  "contractName": "FundMe",
  "sourceName": "contracts/FundMe.sol",
  "abi": [
    {
      "inputs": [
        {
          "internalType": "address",
          "name": "_priceFeedAddress",
          "type": "address"
        }
      ],
      "stateMutability": "nonpayable",
      "type": "constructor"
    },
    {
      "inputs": [],
      "name": "FundMe__InsufficientFunds",
      "type": "error"
    },
    {
      "inputs": [],
      "name": "FundMe__NegativePrice",
      "type": "error"
    },
    {
      "inputs": [],
      "name": "FundMe__NotOwner",
      "type": "error"
    },
    {
      "anonymous": false,
      "inputs": [],
      "name": "Withdrawal",
      "type": "event"
    },
    {
      "inputs": [],
      "name": "MININUM_FUND_USD",
      "outputs": [
        {
          "internalType": "uint256",
          "name": "",
          "type": "uint256"
        }
      ],
      "stateMutability": "view",
      "type": "function"
    },
    {
      "inputs": [
        {
          "internalType": "address",
          "name": "",
          "type": "address"
        }
      ],
      "name": "addressToAmountFunded",
      "outputs": [
        {
          "internalType": "uint256",
          "name": "",
          "type": "uint256"
        }
      ],
      "stateMutability": "view",
      "type": "function"
    },
    {
      "inputs": [],
      "name": "fund",
      "outputs": [],
      "stateMutability": "payable",
      "type": "function"
    },
    {
      "inputs": [
        {
          "internalType": "uint256",
          "name": "",
          "type": "uint256"
        }
      ],
      "name": "funders",
      "outputs": [
        {
          "internalType": "address",
          "name": "",
          "type": "address"
        }
      ],
      "stateMutability": "view",
      "type": "function"
    },
    {
      "inputs": [
        {
          "internalType": "address",
          "name": "funder",
          "type": "address"
        }
      ],
      "name": "getFunderAmount",
      "outputs": [
        {
          "internalType": "uint256",
          "name": "",
          "type": "uint256"
        }
      ],
      "stateMutability": "view",
      "type": "function"
    },
    {
      "inputs": [],
      "name": "getOwner",
      "outputs": [
        {
          "internalType": "address",
          "name": "",
          "type": "address"
        }
      ],
      "stateMutability": "view",
      "type": "function"
    },
    {
      "inputs": [],
      "name": "withdraw",
      "outputs": [],
      "stateMutability": "nonpayable",
      "type": "function"
    }
  ],
  "bytecode": "0x60a060405234801561001057600080fd5b50604051610b3f380380610b3f83398181016040528101906100329190610110565b3373ffffffffffffffffffffffffffffffffffffffff1660808173ffffffffffffffffffffffffffffffffffffffff168152505080600260006101000a81548173ffffffffffffffffffffffffffffffffffffffff021916908373ffffffffffffffffffffffffffffffffffffffff1602179055505061013d565b600080fd5b600073ffffffffffffffffffffffffffffffffffffffff82169050919050565b60006100dd826100b2565b9050919050565b6100ed816100d2565b81146100f857600080fd5b50565b60008151905061010a816100e4565b92915050565b600060208284031215610126576101256100ad565b5b6000610134848285016100fb565b91505092915050565b6080516109e061015f600039600081816101b1015261036501526109e06000f3fe60806040526004361061006f5760003560e01c8063893d20e81161004e578063893d20e8146100f3578063b60d42881461011e578063dc0d3dff14610128578063dec91edc146101655761006f565b8062da57d8146100745780633ccfd60b1461009f5780633e47d6f3146100b6575b600080fd5b34801561008057600080fd5b506100896101a2565b6040516100969190610640565b60405180910390f35b3480156100ab57600080fd5b506100b46101af565b005b3480156100c257600080fd5b506100dd60048036038101906100d891906106be565b610349565b6040516100ea9190610640565b60405180910390f35b3480156100ff57600080fd5b50610108610361565b60405161011591906106fa565b60405180910390f35b610126610389565b005b34801561013457600080fd5b5061014f600480360381019061014a9190610741565b61048e565b60405161015c91906106fa565b60405180910390f35b34801561017157600080fd5b5061018c600480360381019061018791906106be565b6104cd565b6040516101999190610640565b60405180910390f35b6802b5e3af16b188000081565b7f000000000000000000000000000000000000000000000000000000000000000073ffffffffffffffffffffffffffffffffffffffff163373ffffffffffffffffffffffffffffffffffffffff1614610234576040517f579610db00000000000000000000000000000000000000000000000000000000815260040160405180910390fd5b60005b6001805490508110156102d35760008060006001848154811061025d5761025c61076e565b5b9060005260206000200160009054906101000a900473ffffffffffffffffffffffffffffffffffffffff1673ffffffffffffffffffffffffffffffffffffffff1673ffffffffffffffffffffffffffffffffffffffff168152602001908152602001600020819055508080600101915050610237565b507f70e44c6a87d9d34b40532fa4ee796aaf3845b3ed4f3f228876cc860f2cf5473960405160405180910390a13373ffffffffffffffffffffffffffffffffffffffff166108fc479081150290604051600060405180830381858888f19350505050158015610346573d6000803e3d6000fd5b50565b60006020528060005260406000206000915090505481565b60007f0000000000000000000000000000000000000000000000000000000000000000905090565b6802b5e3af16b188000061039c34610515565b10156103d4576040517f7c82983800000000000000000000000000000000000000000000000000000000815260040160405180910390fd5b346000803373ffffffffffffffffffffffffffffffffffffffff1673ffffffffffffffffffffffffffffffffffffffff168152602001908152602001600020600082825461042291906107cc565b925050819055506001339080600181540180825580915050600190039060005260206000200160009091909190916101000a81548173ffffffffffffffffffffffffffffffffffffffff021916908373ffffffffffffffffffffffffffffffffffffffff160217905550565b6001818154811061049e57600080fd5b906000526020600020016000915054906101000a900473ffffffffffffffffffffffffffffffffffffffff1681565b60008060008373ffffffffffffffffffffffffffffffffffffffff1673ffffffffffffffffffffffffffffffffffffffff168152602001908152602001600020549050919050565b600080610520610586565b9050600081121561055d576040517f18f2d55100000000000000000000000000000000000000000000000000000000815260040160405180910390fd5b60006305f5e1008261056f919061082f565b9050838161057d9190610860565b92505050919050565b600080600260009054906101000a900473ffffffffffffffffffffffffffffffffffffffff1673ffffffffffffffffffffffffffffffffffffffff1663feaf968c6040518163ffffffff1660e01b815260040160a060405180830381865afa1580156105f6573d6000803e3d6000fd5b505050506040513d601f19601f8201168201806040525081019061061a919061092f565b5050509150508091505090565b6000819050919050565b61063a81610627565b82525050565b60006020820190506106556000830184610631565b92915050565b600080fd5b600073ffffffffffffffffffffffffffffffffffffffff82169050919050565b600061068b82610660565b9050919050565b61069b81610680565b81146106a657600080fd5b50565b6000813590506106b881610692565b92915050565b6000602082840312156106d4576106d361065b565b5b60006106e2848285016106a9565b91505092915050565b6106f481610680565b82525050565b600060208201905061070f60008301846106eb565b92915050565b61071e81610627565b811461072957600080fd5b50565b60008135905061073b81610715565b92915050565b6000602082840312156107575761075661065b565b5b60006107658482850161072c565b91505092915050565b7f4e487b7100000000000000000000000000000000000000000000000000000000600052603260045260246000fd5b7f4e487b7100000000000000000000000000000000000000000000000000000000600052601160045260246000fd5b60006107d782610627565b91506107e283610627565b92508282019050808211156107fa576107f961079d565b5b92915050565b7f4e487b7100000000000000000000000000000000000000000000000000000000600052601260045260246000fd5b600061083a82610627565b915061084583610627565b92508261085557610854610800565b5b828204905092915050565b600061086b82610627565b915061087683610627565b925082820261088481610627565b9150828204841483151761089b5761089a61079d565b5b5092915050565b600069ffffffffffffffffffff82169050919050565b6108c1816108a2565b81146108cc57600080fd5b50565b6000815190506108de816108b8565b92915050565b6000819050919050565b6108f7816108e4565b811461090257600080fd5b50565b600081519050610914816108ee565b92915050565b60008151905061092981610715565b92915050565b600080600080600060a0868803121561094b5761094a61065b565b5b6000610959888289016108cf565b955050602061096a88828901610905565b945050604061097b8882890161091a565b935050606061098c8882890161091a565b925050608061099d888289016108cf565b915050929550929590935056fea2646970667358221220af860af7ac989fc8ba1b5c8e2f56f47b5f4ee7ae48701956933948c30bdf789464736f6c63430008180033",
  "linkReferences": {},
  "deployedLinkReferences": {}
}